:020000040000FA
:100000000C9463000C948B000C948B000C945A0598
:100010000C945A050C945A050C948B000C948B008C
:100020000C948B000C948B000C948B000C94D205D8
:100030000C948B000C948B000C948B000C948B0014
:100040000C94B8040C948B000C9428050C940205B5
:100050000C948B000C948B000C948B000C948B00F4
:100060000C948B000C948B000000000024002700EF
:100070002A0000000008000201000003040700003D
:1000800000000000000000000000230026002900FE
:1000900000000000250028002B00040404040404D0
:1000A0000404020202020202030303030303010227
:1000B00004081020408001020408102001020408F6
:1000C0001020D306E80A11241FBECFEFD8E0DEBF10
:1000D000CDBF11E0A0E0B1E0EEE6F9E102C005908D
:1000E0000D92AC33B107D9F722E0ACE3B1E001C027
:1000F0001D92AB37B207E1F710E0C2E6D0E004C0D2
:100100002197FE010E94A40CC136D107C9F70E94B5
:100110009E070C94AA0C0C9400008F929F92AF92B1
:10012000BF92FF920F931F93CF93DF93F0905902EA
:100130002BE02F1508F44CC020915B0208E512E07B
:10014000021B110927FD1395000F111F000F111F2E
:1001500020915A02C8E8D0E0C21BD10927FDD395EF
:10016000CC0FDD1FCC0FDD1F4E010D2E000CAA0899
:10017000BB089801012E000C440B550B28193909B6
:100180004A095B09DC010E942E0B24EB30E040E0C1
:1001900050E00E94040B820E931EA41EB51E8C1606
:1001A0009D062CF0E801801691060CF4E4012297DC
:1001B000CC0FDD1F2FB7F8948F2D90E0FC01EE0FD0
:1001C000FF1FE80FF91FEE5CFD4FD283C1832FBFE5
:1001D000DF91CF911F910F91FF90BF90AF909F90B3
:1001E0008F900895833081F028F4813099F0823027
:1001F000A9F008958730A9F08830C9F08430B1F4AF
:10020000809180008F7D03C0809180008F778093E4
:100210008000089584B58F7784BD089584B58F7D5F
:10022000FBCF8091B0008F778093B00008958091CC
:10023000B0008F7DF9CF1F93CF93DF93282F30E04D
:10024000F901EE58FF4F8491F901E255FF4FD49127
:10025000F901E656FF4FC491CC23A9F0162F811166
:100260000E94F200EC2FF0E0EE0FFF1FE057FF4F6F
:10027000A591B4918FB7F894EC91111108C0D09565
:10028000DE23DC938FBFDF91CF911F910895DE2B8A
:10029000F8CFCF93DF9390E0FC01E255FF4F24911C
:1002A00086569F4FFC0184918823D1F090E0880FFF
:1002B000991FFC01E859FF4FA591B491FC01E0574B
:1002C000FF4FC591D49161110EC09FB7F8948C91E6
:1002D000E22FE0958E238C932881E223E8839FBF51
:1002E000DF91CF9108958FB7F894EC91E22BEC93C6
:1002F0008FBFF6CF1F93CF93DF93182FEB0161E0F1
:100300000E944901209739F460E0812FDF91CF915D
:100310001F910C941B01CF3FD10511F461E0F5CF83
:10032000E12FF0E0EE58FF4FE491E33031F140F47B
:10033000E130B1F0E230E1F0C038D1057CF7E4CF34
:10034000E73029F1E83059F1E430B1F780918000CD
:10035000806280938000D0938B00C0938A0004C099
:1003600084B5806884BDC7BDDF91CF911F9108958A
:1003700084B5806284BDC8BDF7CF8091800080685D
:1003800080938000D0938900C0938800EDCF809146
:10039000B00080688093B000C093B300E5CF809137
:1003A000B00080628093B000C093B400DDCF3FB74F
:1003B000F8948091910190919201A0919301B09154
:1003C000940126B5A89B05C02F3F19F00196A11DE9
:1003D000B11D3FBFBA2FA92F982F8827BC01CD018F
:1003E000620F711D811D911D42E0660F771F881FEE
:1003F000991F4A95D1F708958F929F92AF92BF921D
:10040000CF92DF92EF92FF924B015C010E94D701E5
:100410006B017C010E94D7016C197D098E099F092F
:10042000683E734081059105A8F321E0821A910886
:10043000A108B10888EEC80E83E0D81EE11CF11CAB
:1004400081149104A104B10429F7FF90EF90DF908B
:10045000CF90BF90AF909F908F900895AF92BF9232
:10046000CF92DF92EF92FF920F931F93CF93DF9380
:100470006C017B018B01040F151FEB015E01AE18AF
:10048000BF08C017D10759F06991D601ED91FC91D1
:100490000190F081E02DC6010995892B79F7C501FE
:1004A000DF91CF911F910F91FF90EF90DF90CF9050
:1004B000BF90AF900895FC01538D448D252F30E0FF
:1004C000842F90E0821B930B541710F0CF96089561
:1004D00001970895FC01918D828D981761F0A28D8E
:1004E000AE0FBF2FB11D5D968C91928D9F5F9F7354
:1004F000928F90E008958FEF9FEF0895FC01918D0A
:10050000828D981731F0828DE80FF11D858D90E076
:1005100008958FEF9FEF0895FC01918D228D892F13
:1005200090E0805C9F4F821B91098F7399270895FB
:1005300085E991E00E948C0221E0892B09F420E0FA
:10054000822F089580E090E0892B29F00E94980284
:1005500081110C9400000895FC01A48DA80FB92FFF
:10056000B11DA35ABF4F2C91848D90E001968F73DB
:100570009927848FA689B7892C93A089B1898C91FA
:10058000837080648C93938D848D981306C0028849
:10059000F389E02D80818F7D80830895EF92FF9213
:1005A0000F931F93CF93DF93EC0181E0888F9B8D96
:1005B0008C8D98131AC0E889F989808185FF15C050
:1005C0009FB7F894EE89FF896083E889F989808173
:1005D0008370806480839FBF81E090E0DF91CF9142
:1005E0001F910F91FF90EF900895F62E0B8D10E064
:1005F0000F5F1F4F0F731127E02E8C8D8E110CC0D3
:100600000FB607FCFACFE889F989808185FFF5CF1D
:10061000CE010E94AC02F1CFEB8DEC0FFD2FF11D4E
:10062000E35AFF4FF0829FB7F8940B8FEA89FB895A
:1006300080818062CFCFCF93DF93EC01888D8823B8
:10064000B9F0AA89BB89E889F9898C9185FD03C035
:10065000808186FD0DC00FB607FCF7CF8C9185FF1A
:10066000F2CF808185FFEDCFCE010E94AC02E9CFB1
:10067000DF91CF91089520917F013091800128175B
:10068000390771F490917D0180917E01981741F0B6
:10069000E0917D01F0E0E35CFE4F808190E0089501
:1006A0008FEF9FEF08950895EF92FF920F931F939E
:1006B000CF93DF93DC015C96ED90FC905D97E114A5
:1006C000F10479F481E090E013969C938E93129755
:1006D00090E080E0DF91CF911F910F91FF90EF901C
:1006E00008955196ED91FC91529750968C915097A8
:1006F000982F90950FB75E962C915E97122F1270DF
:1007000021FD6095F8942081112319F1282B208375
:10071000E7012197F1F728E0462F50E0308160FF94
:100720001AC0382B3083E7012197F1F7BA0175958C
:100730006795215089F7112381F080818923808377
:100740000FBF5C968D919C910197F1F781E090E04D
:10075000C1CF2923DCCF3923E5CF9081892BEFCF7F
:1007600020917F01309180012817390761F4809131
:100770007E0120917D0190E0805C9F4F821B91095A
:100780008F739927089590E080E0089520917F016C
:100790003091800128173907B9F490917D0180913B
:1007A0007E01981789F0E0917D01F0E0E35CFE4F57
:1007B000808120917D0130E02F5F3F4F2F733327E1
:1007C00020937D0190E008958FEF9FEF089590E0D2
:1007D00080E0089560E086E00E941B0160E085E013
:1007E0000E941B0160E084E00E941B0160E083E046
:1007F0000E941B0170E060E087E00E947A0170E0D7
:1008000060E082E00C947A01CF93DF93EB01BC01AE
:1008100087E00E947A01BE0182E0DF91CF910C94C3
:100820007A0161E086E00E941B0160E085E00E94A1
:100830001B0160E084E00E941B0161E083E00E94F4
:100840001B018091570290915802BC010C94040442
:1008500060E086E00E941B0161E085E00E941B01D0
:1008600061E084E00E941B0160E083E00E941B01C4
:100870008091570290915802BC010C94040460E0EE
:1008800086E00E941B0161E085E00E941B0160E0A0
:1008900084E00E941B0161E083E00E941B018091C3
:1008A000570290915802BC010C94040442E050E0BD
:1008B00065E271E085E991E00C942E020F931F939D
:1008C00060E08CE00E941B0183E090E00197F1F76B
:1008D00061E08CE00E941B0183E290E00197F1F758
:1008E00060E08CE00E941B01EBEBF0E06491E7EA32
:1008F000F0E0E491F0E0EE0FFF1FEA57FF4F859123
:10090000949108EA11E620E030E0462F0E948E061E
:100910006115710581059105F1F06F5F7F4F8F4F74
:100920009F4F9F706115710581059105A1F00E948F
:100930009F0B26E933E44BE05DE30E94030C20E0CB
:1009400030E040E05FE30E94030C0E94670BCB01A4
:100950001F910F9108958CE291E0FACF0E948D00D3
:100960006AEF70E080E090E00E94FC010C945E046D
:100970001F920F920FB60F9211242F933F938F93D4
:100980009F93AF93BF9380918D0190918E01A09121
:100990008F01B091900130918C0123E0230F2D370E
:1009A00058F50196A11DB11D20938C0180938D01F6
:1009B00090938E01A0938F01B0939001809191014B
:1009C00090919201A0919301B09194010196A11D83
:1009D000B11D8093910190939201A0939301B093E4
:1009E0009401BF91AF919F918F913F912F910F9063
:1009F0000FBE0F901F90189526E8230F0296A11D99
:100A0000B11DD2CF1F920F920FB60F9211242F93C8
:100A10003F934F935F936F937F938F939F93AF9386
:100A2000BF93EF93FF9385E991E00E94AC02FF91A1
:100A3000EF91BF91AF919F918F917F916F915F9156
:100A40004F913F912F910F900FBE0F901F901895CF
:100A50001F920F920FB60F9211242F938F939F9393
:100A6000EF93FF93E091A501F091A6018081E091C1
:100A7000AB01F091AC0182FD1BC090818091AE0171
:100A80008F5F8F732091AF01821741F0E091AE012B
:100A9000F0E0EB56FE4F958F8093AE01FF91EF9102
:100AA0009F918F912F910F900FBE0F901F901895CF
:100AB0008081F4CF1F920F920FB60F9211242F93C3
:100AC0003F934F935F936F937F938F939F93AF93D6
:100AD000BF93EF93FF93E0917F01F09180013097F6
:100AE00049F0A685B7858585968D91FF14C09C91A8
:100AF0008923A1F4FF91EF91BF91AF919F918F91C5
:100B00007F916F915F914F913F912F910F900FBE09
:100B10000F901F9018959C91892361F7A389B48940
:100B20009C918589809589238C93868997890197E3
:100B3000F1F7608D718DA685B785558538E020E089
:100B4000CB010197F1F7822F90E095958795282F9B
:100B50004C91452309F02068315091F7868D81FD35
:100B6000209580917E0190E001968F7399273091B6
:100B70007D01381799F0A0917E01B0E0A35CBE4FD3
:100B80002C9380937E01828D938D0197F1F7A38939
:100B9000B4898C919589892B8C93ACCF868D81609B
:100BA000868FF1CF1F920F920FB60F9211242F93C1
:100BB0003F934F935F936F937F938F939F93AF93E5
:100BC000BF93CF93DF93EF93FF9380913C01C0914C
:100BD0005602D0E087FF24C0109285001092840056
:100BE00080913C018F5F80933C0180913C01082EF5
:100BF000000C990B8C179D0724F480913C018C30DC
:100C0000C4F18091840090918500049680349C49C1
:100C100008F47AC08091840090918500049676C093
:100C200080913C01082E000C990B8C179D07C4F68F
:100C3000E0913C018E2FEE0F990BFC01EE0FFF1F90
:100C4000E80FF91FEE5CFD4F808186FFC9CFE09170
:100C50003C018E2FEE0F990BFC01EE0FFF1FE80FEA
:100C6000F91FEE5CFD4F808160E08F730E941B01D5
:100C7000B7CF2091840030918500E0913C018E2F08
:100C8000EE0F990BFC01EE0FFF1FE80FF91FEE5C52
:100C9000FD4F81819281820F931F909389008093F1
:100CA0008800E0913C018E2FEE0F990BFC01EE0FB6
:100CB000FF1FE80FF91FEE5CFD4F808186FF11C01A
:100CC000E0913C018E2FEE0F990BFC01EE0FFF1F00
:100CD000E80FF91FEE5CFD4F808161E08F730E9489
:100CE0001B01FF91EF91DF91CF91BF91AF919F9148
:100CF0008F917F916F915F914F913F912F910F90C5
:100D00000FBE0F901F90189580E49CE99093890086
:100D1000809388008FEF80933C01E3CFCF92DF92E6
:100D2000EF92FF920F931F93E82FF92F05C0015008
:100D300011092109310961F1908196239417B9F3C2
:100D400005C0015011092109310911F19081962343
:100D50009413F7CFC12CD12CE12CF12C0AC08FEFCA
:100D6000C81AD80AE80AF80A0C151D052E053F0511
:100D700079F080818623841791F36C2D7D2D8E2D43
:100D80009F2D1F910F91FF90EF90DF90CF900895CE
:100D900060E070E080E090E01F910F91FF90EF9095
:100DA000DF90CF900895109298011092970188EEED
:100DB00093E0A0E0B0E08093990190939A01A09312
:100DC0009B01B0939C0125E031E030939601209384
:100DD000950125EC30E03093A2012093A10124EC91
:100DE00030E03093A4012093A30120EC30E0309355
:100DF000A6012093A50121EC30E03093A8012093B7
:100E0000A70122EC30E03093AA012093A90126EC3F
:100E100030E03093AC012093AB011092AE01109200
:100E2000AF011092B0011092B10110925F021092C6
:100E30005E028093600290936102A0936202B0937D
:100E4000630287E191E090935D0280935C021092CF
:100E50007302109272021092750210927402109234
:100E600077021092760210927902109278026091C5
:100E70007A026E7F6D7F60937A026695617081E081
:100E800068278BE00E941B0161E08BE00E94490112
:100E9000E9EBF0E0E491E0936C02E5EAF0E0E49144
:100EA000F0E0EE0FFF1FE057FF4F85919491909374
:100EB0006E0280936D0260E08AE00E944901809199
:100EC0007A0281FD04C061E08AE00E941B018AE091
:100ED00080936802E8EBF0E0E491E0936902E4EAD1
:100EE000F0E0E491F0E0EE0FFF1FEA57FF4F85912D
:100EF000949190936B0280936A02809156028C3099
:100F0000C8F491E0980F909356028093590290E0B4
:100F1000FC01EE0FFF1FE80FF91FEE5CFD4F88EBA1
:100F20009BE0928381838FEF90E0909358028093AF
:100F3000570208958FEF80935902F5CF789484B5C6
:100F4000826084BD84B5816084BD85B5826085BDC5
:100F500085B5816085BD80916E00816080936E0053
:100F60001092810080918100826080938100809145
:100F700081008160809381008091800081608093F6
:100F800080008091B10084608093B1008091B000B6
:100F900081608093B00080917A00846080937A00B1
:100FA00080917A00826080937A0080917A008160DB
:100FB00080937A0080917A00806880937A00109202
:100FC000C100E091A501F091A60182E08083E0914B
:100FD000A101F091A2011082E091A301F091A4017E
:100FE0008FEC80831092AD01E091A901F091AA01EC
:100FF00086E08083E091A701F091A8018081806163
:101000008083E091A701F091A801808188608083AE
:10101000E091A701F091A801808180688083E09130
:10102000A701F091A80180818F7D808310927702C3
:10103000109276021092750210927402109273024E
:10104000109272028DE991E0909379028093780278
:1010500090916802963108F047C02DEB30E0309354
:101060007302209372022BE931E0309375022093D2
:1010700074022CE231E030937702209376022091C3
:10108000680084E0983048F031E09E3008F430E0A9
:1010900081E001C0880F3A95EAF7822B80936800BF
:1010A0002DE630E0983050F02BE630E09E3030F006
:1010B0002CE630E0963110F030E020E03093700202
:1010C00020936F02292F30E0983008F0AFC181E003
:1010D00001C0880F9A95EAF7809371028091780297
:1010E000909179020197F1F78091760290917702C1
:1010F000892B49F1E0917F01F091800182E0EC358C
:10110000F80709F1309739F0A389B4899C91858952
:10111000809589238C9380917A028E7F80937A02C6
:1011200010927E0110927D018CE592E090938001F7
:1011300080937F01E0916F02F09170028081909125
:101140007102892B808360E08EE00E94490161E09A
:101150008CE00E94490160E08DE00E94490161E05D
:1011600087E00E94490161E086E00E94490161E058
:1011700085E00E94490161E084E00E94490161E04C
:1011800083E00E94490161E082E00E944901809170
:1011900059028C3008F051C061E088E00E9449019A
:1011A00080915902282F30E0F901EE0FFF1FE20F66
:1011B000F31FEE5CFD4F9081907C986090831092BD
:1011C0005A0210925B022CE0622F0E94980C829FC0
:1011D000B001112430E020E0AB01420F531FFA01AF
:1011E000EE0FFF1FE40FF51FEE5CFD4F908196FDA3
:1011F00016C02F5F3F4F2C30310571F781110FC0A2
:101200001092800082E080938100109285001092FD
:101210008400B19A80916F00826080936F00E091AA
:1012200059028E2F90E0FC01EE0FFF1FE80FF91F0F
:10123000EE5CFD4F8081806480838AE590E00E94AF
:101240008D000E94EA0343E150E068E271E085E925
:1012500091E00E942E020E94560470E8472E70E032
:10126000572EECEB6E2EE0E07E2EF8EAEF2EF0E04B
:10127000FF2ECC24CA94D12CB8E7AB2EB12C33244A
:10128000339453E5252E60E0862E60E0962E2FB72E
:10129000F89480918D0190918E01A0918F01B09171
:1012A00090012FBF409188015091890160918A017E
:1012B00070918B01841B950BA60BB70B81359105A3
:1012C000A105B10508F464C02FB7F89480918D0191
:1012D00090918E01A0918F01B09190012FBF8093CA
:1012E000880190938901A0938A01B0938B01F20148
:1012F0008491F301C491F701D491DD2309F4A3C0D3
:1013000081110E94F200ED2FF0E0EE0FFF1FEA576F
:10131000FF4FA591B4918C91C82391E080E009F42E
:1013200090E090938601809387010E945E04209153
:10133000860130918701232B19F044970CF092C05D
:10134000309285010E94EA0386E990E00E94AE0493
:101350008C018AE590E00E94AE048EE190E00E944C
:10136000AE04EC018AE590E00E948D00C017D10721
:101370000CF06CC00F3111050CF468C00E942804F9
:101380006EE571E080E090E00E94FC010E94EA03BB
:101390008CE592E00E94B003892B09F18CE592E084
:1013A0000E94C603809300012FB7F89480918D01AD
:1013B00090918E01A0918F01B09190012FBF8093E9
:1013C000810190938201A0938301B0938401609185
:1013D000000185E991E00E94CE020E9456042FB7D9
:1013E000F89480918D0190918E01A0918F01B09120
:1013F00090012FBF40918101509182016091830142
:1014000070918401841B950BA60BB70B893C910549
:10141000A105B10510F0209200018091000190918A
:101420008501992311F10E94EA032CC09E3040F4FB
:101430002850310981E001C0880F2A95EAF74CCE87
:101440002E503109F7CF90E080E06BCF6F971CF002
:101450000E94110495CF0E943F046CE271E080E08D
:1014600090E092CF1092850193CF8A3409F495C011
:1014700044F58634F1F194F4823409F452C0843492
:1014800009F499C08114910409F401CF0E949802D3
:10149000882309F4F4CE0E940000F1CE883409F4C8
:1014A00060C00CF444C060E086E00E941B0161E073
:1014B00085E00E941B0160E084E00E941B0161E066
:1014C00043C0833509F4AFCF3CF48C3469F18235E5
:1014D000C9F60E941104D6CF863509F46FC086374D
:1014E00009F471C0853571F684EB90E00E948D009F
:1014F000C9CF61E086E00E941B0160E085E00E94A8
:101500001B0161E084E00E941B0160E083E00E9417
:101510001B018091570290915802BC010E94040463
:10152000B1CF0E943F04AECF0E942804ABCF61E050
:1015300086E00E941B0160E085E00E941B0161E0E3
:1015400084E00E941B0160E083E00E941B01609127
:10155000570270915802CB0177FD019695958795BA
:10156000DDCF61E086E00E941B0160E085E00E9423
:101570001B0161E084E00E941B0160E083E00E94A7
:101580001B018091570290915802BC0197FF02C045
:101590006F5F7F4F75956795C1CF60E086E00E94D1
:1015A0001B0161E085E00E941B0160E084E00E9475
:1015B0001B0161E0E3CF90E080E098CFD092580229
:1015C000C09257025FCFB0925802A09257025ACFF2
:1015D00087E191E090935D0280935C0280917F01AE
:1015E000909180018C55924071F4E0916F02F091DE
:1015F000700290818091710280958923808310927E
:10160000800110927F010895052E97FB1EF400942F
:101610000E941B0B57FD07D00E94360B07FC03D01E
:101620004EF40C941B0B50954095309521953F4FEF
:101630004F4F5F4F089590958095709561957F4FBE
:101640008F4F9F4F08950E94580BA59F900DB49FF8
:10165000900DA49F800D911D11240895B7FF0C9447
:10166000230B0E94230B821B930B0895A1E21A2ED9
:10167000AA1BBB1BFD010DC0AA1FBB1FEE1FFF1F36
:10168000A217B307E407F50720F0A21BB30BE40B86
:10169000F50B661F771F881F991F1A9469F76095CD
:1016A0007095809590959B01AC01BD01CF01089587
:1016B000A29FB001B39FC001A39F700D811D112493
:1016C000911DB29F700D811D1124911D08950E94DE
:1016D0006E0B6894B1110C94FD0B08950E94E20BFF
:1016E00088F09F5798F0B92F9927B751B0F0E1F0E3
:1016F000660F771F881F991F1AF0BA95C9F714C093
:10170000B13091F00E94FC0BB1E008950C94FC0BF9
:10171000672F782F8827B85F39F0B93FCCF38695CB
:1017200077956795B395D9F73EF490958095709528
:1017300061957F4F8F4F9F4F0895E89409C097FBA5
:101740003EF490958095709561957F4F8F4F9F4F98
:101750009923A9F0F92F96E9BB279395F6958795DC
:1017600077956795B795F111F8CFFAF4BB0F11F49F
:1017700060FF1BC06F5F7F4F8F4F9F4F16C0882346
:1017800011F096E911C0772321F09EE8872F762F7C
:1017900005C0662371F096E8862F70E060E02AF0BD
:1017A0009A95660F771F881FDAF7880F96958795A9
:1017B00097F9089557FD9058440F551F59F05F3F12
:1017C00071F04795880F97FB991F61F09F3F79F063
:1017D00087950895121613061406551FF2CF4695E5
:1017E000F1DF08C0161617061806991FF1CF869567
:1017F0007105610508940895E894BB27662777274B
:10180000CB0197F908950E94160C0C94870C0E9446
:10181000790C38F00E94800C20F0952311F00C9484
:10182000700C0C94760C11240C94FD0B0E94DA0BB6
:1018300070F3959FC1F3950F50E0551F629FF00123
:10184000729FBB27F00DB11D639FAA27F00DB11D3C
:10185000AA1F649F6627B00DA11D661F829F2227C5
:10186000B00DA11D621F739FB00DA11D621F839F4C
:10187000A00D611D221F749F3327A00D611D231F22
:10188000849F600D211D822F762F6A2F11249F5770
:1018900050409AF0F1F088234AF0EE0FFF1FBB1F73
:1018A000661F771F881F91505040A9F79E3F510532
:1018B00080F00C94700C0C94FD0B5F3FE4F3983EA9
:1018C000D4F3869577956795B795F795E7959F5FDC
:1018D000C1F7FE2B880F911D9695879597F908956E
:1018E00097F99F6780E870E060E008959FEF80ECD3
:1018F000089500240A941616170618060906089576
:1019000000240A9412161306140605060895092EDB
:101910000394000C11F4882352F0BB0F40F4BF2B4A
:1019200011F460FF04C06F5F7F4F8F4F9F4F08958A
:10193000991B79E004C0991F961708F0961B881F21
:101940007A95C9F780950895EE0FFF1F0590F491E1
:10195000E02D099410E0C2E6D0E004C0FE010E9430
:10196000A40C2196C336D107C9F7F894FFCF5300D2
:10197000000000CE022E025B021B038C026A027E74
:10198000020000000054032E02E7035303B003C615
:10199000033B030D0A00426C7565746F6F74682019
:0A19A0004361722052656164790012
:107E0000112484B714BE81FFF0D085E080938100F7
:107E100082E08093C00088E18093C10086E0809377
:107E2000C20080E18093C4008EE0C9D0259A86E02C
:107E300020E33CEF91E0309385002093840096BBD3
:107E4000B09BFECF1D9AA8958150A9F7CC24DD24C4
:107E500088248394B5E0AB2EA1E19A2EF3E0BF2EE7
:107E6000A2D0813461F49FD0082FAFD0023811F036
:107E7000013811F484E001C083E08DD089C08234E0
:107E800011F484E103C0853419F485E0A6D080C0E4
:107E9000853579F488D0E82EFF2485D0082F10E0AE
:107EA000102F00270E291F29000F111F8ED06801E7
:107EB0006FC0863521F484E090D080E0DECF843638
:107EC00009F040C070D06FD0082F6DD080E0C81688
:107ED00080E7D80618F4F601B7BEE895C0E0D1E017
:107EE00062D089930C17E1F7F0E0CF16F0E7DF06D8
:107EF00018F0F601B7BEE89568D007B600FCFDCFD4
:107F0000A601A0E0B1E02C9130E011968C91119780
:107F100090E0982F8827822B932B1296FA010C0160
:107F200087BEE89511244E5F5F4FF1E0A038BF0790
:107F300051F7F601A7BEE89507B600FCFDCF97BE46
:107F4000E89526C08437B1F42ED02DD0F82E2BD052
:107F50003CD0F601EF2C8F010F5F1F4F84911BD097
:107F6000EA94F801C1F70894C11CD11CFA94CF0C13
:107F7000D11C0EC0853739F428D08EE10CD085E9AC
:107F80000AD08FE07ACF813511F488E018D01DD067
:107F900080E101D065CF982F8091C00085FFFCCF94
:107FA0009093C60008958091C00087FFFCCF809118
:107FB000C00084FD01C0A8958091C6000895E0E648
:107FC000F0E098E1908380830895EDDF803219F02E
:107FD00088E0F5DFFFCF84E1DECF1F93182FE3DFCA
:107FE0001150E9F7F2DF1F91089580E0E8DFEE27F6
:047FF000FF270994CA
:027FFE00040479
:00000001FF
